:020000040800F2
:100000000050002021200008A91F0008AB1F000895
:10001000AD1F0008AF1F0008B11F0008000000005E
:10002000000000000000000000000000B31F0008F6
:10003000B51F000800000000B71F0008B91F000826
:10004000692000086920000869200008692000086C
:10005000692000086920000869200008692000085C
:10006000692000086920000869200008C91F0008ED
:10007000692000086920000869200008692000083C
:10008000692000086920000869200008692000082C
:10009000692000086920000869200008692000081C
:1000A000692000086920000869200008692000080C
:1000B00069200008692000086920000869200008FC
:1000C00069200008692000086920000869200008EC
:1000D00069200008692000086920000869200008DC
:1000E000692000086920000869200008000000005D
:1000F0000000000000000000000000000000000000
:0C01000000000000000000005FF808F1A3
:10010C0010B5054C237833B9044B13B10448AFF345
:10011C0000800123237010BD0C00002000000000A3
:10012C00B420000808B5034B1BB103490348AFF3D7
:10013C00008008BD0000000010000020B420000862
:10014C0080F0004002E000BF81F0004142001FBF80
:10015C005FEA410392EA030F7FEA226C7FEA236C89
:10016C006AD04FEA1262D2EB1363C1BFD21841407E
:10017C0048404140B8BF5B42192B88BF704710F014
:10018C00004F40F4000020F07F4018BF404211F0B7
:10019C00004F41F4000121F07F4118BF494292EA1F
:1001AC00030F3FD0A2F1010241FA03FC10EB0C004B
:1001BC00C3F1200301FA03F100F0004302D54942D8
:1001CC0060EB4000B0F5000F13D3B0F1807F06D385
:1001DC0040084FEA310102F10102FE2A51D2B1F17D
:1001EC00004F40EBC25008BF20F0010040EA030072
:1001FC007047490040EB000010F4000FA2F101021F
:10020C00EDD1B0FA80FCACF1080CB2EB0C0200FAA8
:10021C000CF0AABF00EBC25052421843BCBFD040F6
:10022C001843704792F0000F81F4000106BF80F470
:10023C0000000132013BB5E74FEA41037FEA226C33
:10024C0018BF7FEA236C21D092EA030F04D092F0FE
:10025C00000F08BF0846704790EA010F1CBF002032
:10026C00704712F07F4F04D1400028BF40F000408F
:10027C00704712F100723CBF00F50000704700F0AF
:10028C00004343F0FE4040F4000070477FEA2262D6
:10029C0016BF08467FEA23630146420206BF5FEAA7
:1002AC00412390EA010F40F4800070474FF00003A7
:1002BC0004E000BF10F0004348BF40425FEA000C6E
:1002CC0008BF704743F0964301464FF000001CE016
:1002DC0050EA010208BF70474FF000030AE000BF6C
:1002EC0050EA010208BF704711F0004302D54042AA
:1002FC0061EB41015FEA010C02BF8446014600201C
:10030C0043F0B64308BFA3F18053A3F50003BCFA36
:10031C008CF2083AA3EBC25310DB01FA02FC6344E3
:10032C0000FA02FCC2F12002BCF1004F20FA02F2EA
:10033C0043EB020008BF20F00100704702F12002DD
:10034C0001FA02FCC2F1200250EA4C0021FA02F23E
:10035C0043EB020008BF20EADC7070474FF0FF0C43
:10036C001CEAD0521EBF1CEAD15392EA0C0F93EA3E
:10037C000C0F6FD01A4480EA010C400218BF5FEAE0
:10038C0041211ED04FF0006343EA501043EA511153
:10039C00A0FB01310CF00040B1F5000F3EBF49004D
:1003AC0041EAD3715B0040EA010062F17F02FD2A51
:1003BC001DD8B3F1004F40EBC25008BF20F0010034
:1003CC00704790F0000F0CF0004C08BF49024CEA4B
:1003DC00502040EA51207F3AC2BFD2F1FF0340EADD
:1003EC00C250704740F400004FF00003013A5DDC4E
:1003FC0012F1190FDCBF00F000407047C2F100028F
:10040C00410021FA02F1C2F1200200FA02FC5FEA7B
:10041C00310040F1000053EA4C0308BF20EADC70C5
:10042C00704792F0000F00F0004C02BF400010F437
:10043C00000F013AF9D040EA0C0093F0000F01F0E4
:10044C00004C02BF490011F4000F013BF9D041EA06
:10045C000C018FE70CEAD15392EA0C0F18BF93EA08
:10046C000C0F0AD030F0004C18BF31F0004CD8D132
:10047C0080EA010000F00040704790F0000F17BFB9
:10048C0090F0004F084691F0000F91F0004F14D0FF
:10049C0092EA0C0F01D142020FD193EA0C0F03D157
:1004AC004B0218BF084608D180EA010000F000405A
:1004BC0040F0FE4040F40000704740F0FE4040F435
:1004CC00400070474FF0FF0C1CEAD0521EBF1CEAD4
:1004DC00D15392EA0C0F93EA0C0F69D0A2EB0302F2
:1004EC0080EA010C49024FEA402037D04FF080538C
:1004FC0043EA111143EA10130CF000408B4238BF51
:10050C005B0042F17D024FF4000C8B4224BF5B1A5E
:10051C0040EA0C00B3EB510F24BFA3EB510340EAAC
:10052C005C00B3EB910F24BFA3EB910340EA9C005A
:10053C00B3EBD10F24BFA3EBD10340EADC001B01CA
:10054C0018BF5FEA1C1CE0D1FD2A3FF650AF8B426E
:10055C0040EBC25008BF20F0010070470CF0004C7B
:10056C004CEA50207F32C2BFD2F1FF0340EAC250A6
:10057C00704740F400004FF00003013A37E792F067
:10058C00000F00F0004C02BF400010F4000F013AC5
:10059C00F9D040EA0C0093F0000F01F0004C02BFC0
:1005AC00490011F4000F013BF9D041EA0C0195E729
:1005BC000CEAD15392EA0C0F08D142027FF47DAFC2
:1005CC0093EA0C0F7FF470AF084676E793EA0C0FB2
:1005DC0004D14B023FF44CAF08466EE730F0004CB0
:1005EC0018BF31F0004CCAD130F000427FF45CAF40
:1005FC0031F000437FF43CAF5FE700BF38B50E4BE2
:10060C00054618784FF47A73B3FBF0F30B4A106875
:10061C00B0FBF3F000F02EFB044658B90F2D09D8AF
:10062C00024629464FF0FF3000F0E4FA044B204616
:10063C001D6038BD012038BD0000002008000020DE
:10064C0004000020074A08B51368032043F0100388
:10065C00136000F0BDFA0020FFF7D0FF01F0B6FBED
:10066C00002008BD00200240034A044B11681B788F
:10067C000B441360704700BF2800002000000020CE
:10068C00014B1868704700BF2800002038B504469D
:10069C00FFF7F6FF0546631C1EBF044B1B78E418DE
:1006AC00FFF7EEFF401B8442FAD838BD0000002053
:1006BC007047436A10B59A6A12F0500F1BD19A6AB0
:1006CC0042F400729A621A68926802F46022B2F5DF
:1006DC00602F0CD1DA6852B99A6A22F480729A624D
:1006EC009A6AD2045EBF9A6A42F001029A62184674
:1006FC00FFF7DEFF10BD1B6ABDE810401B6B1847EF
:10070C0008B5406A01F0CCF908BD7047406A08B5DD
:10071C00836A43F040038362C36A43F00403C362F9
:10072C00FFF7F3FF08BD0000002373B5019390F8A9
:10073C002430012B74D001234D6880F82430062D11
:10074C0002684FEA85030C6825D82B441F25566B8D
:10075C00053B9D4026EA050504FA03F32B4353633E
:10076C00092C4FEA44038D682FD907262344D168FE
:10077C001E3B9E4021EA060105FA03F30B43D360AE
:10078C00A4F11003012B2BD90023002280F8242084
:10079C00184602B070BD0C2D0BD82B441F25166BC0
:1007AC00233B9D4026EA050504FA03F32B43136310
:1007BC00D6E72B441F25D66A413B9D4026EA05050A
:1007CC0004FA03F32B43D362CAE7072611692344C7
:1007DC009E4021EA060105FA03F30B431361CFE7B0
:1007EC00104B9A4216D193681B02CDD49368102CEF
:1007FC0043F400039360C7D10B4B0C4A1B68B3FB4B
:10080C00F2F20A2353430193019B002BBCD0019BB2
:10081C00013BF8E7836A43F0200383620123B4E7CA
:10082C000223B5E7002401400800002040420F00DD
:10083C00002373B50193036804469A68D20702D566
:10084C00002002B070BD9A6842F001029A60124B0F
:10085C00124A1B68B3FBF2F30193019BC3B9FFF778
:10086C000FFF064623689D6815F00105E8D1FFF7D8
:10087C0007FF801B0228F5D9A36A84F8245043F0A3
:10088C001003A362E36A012043F00103E362D8E79B
:10089C00019B013BE0E700BF0800002040420F0035
:1008AC002DE9D8419046404B026804469A420F46C7
:1008BC0002D03E498A4203D15B6813F4702F6ED18B
:1008CC0094F82430012B6CD00123204684F824307A
:1008DC00FFF7AEFF064600285DD1A06A216820F420
:1008EC007060324B20F0010040F480709942A0629D
:1008FC0004D12D4A536813F4702F3ED1A36A23F40C
:10090C008013A3624B685A0505D5A36A23F44053A0
:10091C0043F48053A362A36A206A13F4805318BF74
:10092C00E36A3A4618BF23F00603E362002384F817
:10093C0024301F4B4C3183621E4BC3621E4B03632E
:10094C006FF0020341F84C3C51F8443C43F4807383
:10095C0041F8443C434600F0E9F923689A6802F4F4
:10096C006022B2F5602F9A680CBF42F4A00242F4E8
:10097C0080129A603046BDE8D881A36A43F4801394
:10098C00A36253685B0541BFA06A20F4405040F459
:10099C008050A062BFE7002384F82430EAE70126E8
:1009AC00E8E70226E6E700BF0024014000280140EA
:1009BC00BF0600080D0700081907000838B50368C2
:1009CC0004469A68D20701D4002038BD9A6822F0F8
:1009DC0001029A60FFF754FE054623689B68DB070B
:1009EC00F2D5FFF74DFE401B0228F6D9A36A012071
:1009FC0043F01003A362E36A43F00103E36238BDE2
:100A0C0070B50446002871D0836A23B9C36280F89C
:100A1C00243001F02BFA2046FFF7D0FFA36A13F025
:100A2C00100FA36A64D1002862D1E16923F48853C2
:100A3C00626823F0020343F002030A43A168A36235
:100A4C00E368B1F5807F42EA430238D0012914BF34
:100A5C0006464FF480766569012D07D1002B30D105
:100A6C00A369013B46EA433545F400662368B1F5BA
:100A7C00807F5D6825F4694545EA06055D609E68E2
:100A8C001D4D05EA060545EA02059D6001D00129C8
:100A9C0020D1216901390905DD6A25F47005294346
:100AAC00D9629968154B0B409A4215D10023E36229
:100ABC00A36A23F0030343F00103A36270BD0E4647
:100ACC00C9E7A36A43F02003A362E36A43F001037E
:100ADC00E362CBE70021DFE7A36A23F0120343F0C4
:100AEC001003A362E36A43F00103E362012070BDCB
:100AFC0043F01003A362F9E7FDF7E1FFFE0E1FFFC1
:100B0C00002373B5019390F824300446012B5AD07E
:100B1C00012380F82430FFF751FF0546002832D11D
:100B2C00A36A022023F4885323F0020343F0020348
:100B3C00A362264B1E6800F0A5FDB6FBF0F040004A
:100B4C000190019B1BBB2046FFF772FE2268936845
:100B5C0043F008039360FFF793FD064623689A68F9
:100B6C00120718D49A6842F004029A60FFF788FDC5
:100B7C00064623689B685B071FD4A36A23F0030314
:100B8C0043F00103A362002384F8243012E0019B9C
:100B9C00013B0193D5E7FFF773FD801B0A28DDD9D4
:100BAC00A36A012523F0120343F01003A362002370
:100BBC0084F82430284602B070BDFFF761FD801B1D
:100BCC000A28D6D9ECE70225F4E700BF080000207C
:100BDC00074A0002D36800F4E06023F4E0631B04CE
:100BEC001B0C43F0BF6343F400330343D3607047E3
:100BFC0000ED00E0174B30B5DC68C4F30224C4F1FF
:100C0C000703251D042B28BF0423062D4FF00105D7
:100C1C0098BF002405FA03F303F1FF3388BF033CAC
:100C2C001940A14005FA04F4013C2240002842EA94
:100C3C0001024FEA0212AFBF00F16040064B00F018
:100C4C000F00D2B2A5BFD2B200F561401A5480F8A1
:100C5C00002330BD00ED00E014ED00E0012342095B
:100C6C0000F01F0003FA00F0014B43F8220070471C
:100C7C0000E100E00138B0F1807F0AD2F021064B90
:100C8C00064A586082F823100020072298601A60E8
:100C9C0070470120704700BF10E000E000ED00E05D
:100CAC00044B04281A680CBF42F0040222F0040220
:100CBC001A60704710E000E0704708B5FFF7FCFFC2
:100CCC0008BD000010B550B314220168154B8468A0
:100CDC000B44B3FBF2F39B000364134B0A68C3632E
:100CEC00436822F47F522343C46822F0300223432A
:100CFC00046923434469234384692343C46923431C
:100D0C0013430B600122002380F821208362C3620D
:100D1C0003634363836380F82030184610BD0120C1
:100D2C0010BD00BFF8FFFDBF00000240F0B590F809
:100D3C002040012C35D0012490F8215080F820401F
:100D4C00A5424FF000064FF0020428D180F8214054
:100D5C00046886632668076C26F001062660C66B5D
:100D6C00BD407560636043680568102BC36A0BBF98
:100D7C00A260A160E160E2604BB1236843F00E0316
:100D8C0023602B68002043F001032B60F0BD236827
:100D9C0023F004032360236843F00A03F0E780F890
:100DAC0020600220F0BD000070B40425C66B026CFC
:100DBC003468036895402542196832D04D0730D508
:100DCC001A6896065EBF1A6822F004021A603E4A40
:100DDC00934219D01432934218D01432934217D044
:100DEC001432934217D01432934217D014329342D8
:100DFC000CBF4FF480034FF08063344A5360C36AD6
:100E0C00002B5ED070BC18470423F6E74023F4E7B0
:100E1C004FF48063F1E74FF48043EEE74FF4802307
:100E2C00EBE702259540254235D08D0733D51A685E
:100E3C00940606D41A6822F00A021A60012280F87D
:100E4C002120214A934219D01432934218D01432E3
:100E5C00934217D01432934217D01432934217D0C6
:100E6C00143293420CBF4FF400134FF00073174A27
:100E7C005360002380F82030836AC1E70223F6E731
:100E8C002023F4E74FF40073F1E74FF40053EEE73F
:100E9C004FF40033EBE708259540254211D00907A4
:100EAC000FD5196821F00E011960012303FA02F223
:100EBC007260836380F82130002380F82030036B4C
:100ECC009EE770BC704700BF080002400000024063
:100EDC002DE9F74F00221646654BDFF8A4E1DFF849
:100EEC00A4C14FF001080C6808FA06F808EA0404DB
:100EFC00A0457FD14D68122D00F0AF8000F28880A4
:100F0C00022D00F0A7807CD8002D00F08E80012DE2
:100F1C0000F09E804FF00F09FF2C93BF824606F124
:100F2C008045083DD0F800B092BFB500D0F804B0B1
:100F3C00AD0009FA05F82BEA080802FA05F588BF96
:100F4C0000F1040A48EA0505CAF80050D1F804A0DB
:100F5C001AF0805F4ED0474D464FAD6926F003081E
:100F6C0045F00105BD61BD6908F1804805F001053A
:100F7C00019508F5803806F0030B019D4FEA8B0BA9
:100F8C00D8F8085009FA0BF925EA09093A4DA84294
:100F9C0068D005F58065A84266D005F58065A84245
:100FAC0064D005F58065A8420CBF0325042505FA1D
:100FBC000BF545EA0905C8F808501D681AF4803F7E
:100FCC0014BF2543A5431D605D681AF4003F14BF90
:100FDC002543A5435D609D681AF4801F14BF25430B
:100FEC00A5439D60DD681AF4001F14BF2C4325EA4D
:100FFC000404DC600136102E7FF473AF03B0BDE83F
:10100C00F08F032D22D0112D84D1CA68043281E7D0
:10101C001A4FBD4209D012D8DFF86C904D4504D060
:10102C0009F580394D457FF475AF8A68C2B1012A44
:10103C000CBFC0F81080C0F8148008226AE7754510
:10104C00F3D06545F1D0DFF84490EBE7002261E77F
:10105C00CA685FE7CA6808325CE7CA680C3259E7AD
:10106C00042257E70025A2E70125A0E702259EE709
:10107C000004014000100240000801400000211053
:10108C00000031100000321000001110000022107E
:10109C0003682DE9F341DB07054610D42B689F0745
:1010AC005ED42B68190700F195802B685A0700F164
:1010BC00BF80EA69002A40F02D81002014E0904C9A
:1010CC00636803F00C03042B07D0636803F00C0374
:1010DC00082B0CD16368DE0309D523689C03DDD58E
:1010EC006B68002BDAD1012002B0BDE8F0816B688F
:1010FC00B3F5803F10D1236843F480332360FFF7AE
:10110C00BFFA064623689803C8D4FFF7B9FA801BC8
:10111C006428F7D90320E7E79BB9236823F48033CD
:10112C002360236823F480232360FFF7A9FA064683
:10113C0023689903B2D5FFF7A3FA801B6428F7D96B
:10114C00E8E7B3F5A02F236803D143F48023236091
:10115C00D1E723F480332360236823F48023CDE785
:10116C00674C636813F00C0F07D0636803F00C0333
:10117C00082B10D16368DA030DD423689B0702D5C2
:10118C002B69012BAFD123686A6923F0F80343EA7A
:10119C00C203236085E72A695A4B6AB101221A609F
:1011AC00FFF76EFA064623689F07ECD4FFF768FA40
:1011BC00801B0228F7D9ADE71A60FFF761FA0646E3
:1011CC00236898077FF56DAFFFF75AFA801B02284A
:1011DC00F6D99FE7AA694A4C4B4BDAB101221A6047
:1011EC00FFF74EFA0646636A9B070DD54FF4FA5289
:1011FC00464B1B68B3FBF2F3019300BF019B5A1ED5
:10120C000192002BF9D150E7FFF73AFA801B022824
:10121C00E9D97FE71A60FFF733FA0646636A9F073E
:10122C007FF543AFFFF72CFA801B0228F6D971E744
:10123C00334CE369D80024D40127E36943F080538D
:10124C00E361E36903F080530093009B304E3368F5
:10125C00D90518D5EB68012B26D1236A43F001037D
:10126C002362FFF70DFA41F288368046236A9B070A
:10127C003FD5002F3FF41DAFE36923F08053E361AA
:10128C0017E70027E2E7336843F480733360FFF716
:10129C00F7F980463368DA05DCD4FFF7F1F9A0EBF7
:1012AC0008006428F6D935E7ABB9236A41F28838CF
:1012BC0023F001032362236A23F004032362FFF764
:1012CC00DFF90646236A9807D3D5FFF7D9F9801BB7
:1012DC004045F7D91EE7052B236A03D143F00403DD
:1012EC002362BAE723F001032362236A23F0040389
:1012FC00B6E7FFF7C5F9A0EB0800B042B6D909E78D
:10130C0000100240000042428004424208000020CB
:10131C0000700040224C636803F00C03082B3FF470
:10132C00E2AE00231F4E022A33602BD1FFF7A8F93F
:10133C000746236899011FD42B6AB3F5803F05D16A
:10134C006268A96822F400320A436260696A6268C2
:10135C000B4322F474121343636001233360FFF7D1
:10136C008FF9054623689A013FF5A7AEFFF788F978
:10137C00401B0228F6D9CDE6FFF782F9C01B0228E4
:10138C00D7D9C7E6FFF77CF9054623689B017FF5A3
:10139C0094AEFFF775F9401B0228F6D9BAE600BFE8
:1013AC00001002406000424230B5194B87B002ACCD
:1013BC0003F11005224618685968083303C2AB4282
:1013CC001446F7D101238DF80430022311498DF80E
:1013DC0005304B6803F00C02082A17D1C3F3834283
:1013EC0006A80244DB0312F8102C0CD54B680A48F3
:1013FC00C3F34043504306AA134413F8143CB0FB08
:10140C00F3F007B030BD05485043FAE70248F8E75F
:10141C00CC2000080010024000127A0000093D00A8
:10142C004D4A2DE9F0411368054603F007038B4242
:10143C000E4628D32A68910732D4D20738D4464AAC
:10144C00136803F007039E4273D32A68434C12F0CF
:10145C00040F79D1130706D563682A6923F4605306
:10146C0043EAC2036360FFF79FFF63683C4AC3F320
:10147C000313D35CD8403B4B18600020FFF7BEF839
:10148C000020BDE8F081136823F007030B431360C1
:10149C00136803F007039942CCD00120BDE8F0811A
:1014AC002E49A8684B6823F0F00303434B60C4E754
:1014BC006A682A4C012A23681CD113F4003FECD033
:1014CC00636841F2883823F0030313436360FFF72A
:1014DC00D7F86B680746012B14D1636803F00C0333
:1014EC00042BACD0FFF7CCF8C01B4045F5D903203A
:1014FC00BDE8F081022A02D113F0007FDFE713F080
:10150C00020FDCE7022B0FD1636803F00C03082BEE
:10151C0095D0FFF7B5F8C01B4045F5D9E7E7FFF7C5
:10152C00AFF8C01B4045E2D8636813F00C0FF6D13E
:10153C0085E7136823F0070333431360136803F044
:10154C0007039E42A9D180E76368E96823F4E0634E
:10155C000B4363607EE700BF002002400010024096
:10156C000721000808000020014B1868704700BFD5
:10157C0008000020044B054A5B68C3F3C223D35C0C
:10158C00034A1068D8407047001002401721000829
:10159C000800002003682DE9F341D907054620D542
:1015AC00354CE369DA0032D40127E36943F0805308
:1015BC00E361E36903F080530193019B2F4E336881
:1015CC00DB0526D5236A13F4407336D1236A6A6887
:1015DC0023F44073134323621FB1E36923F0805358
:1015EC00E3612868830706D5234AA968536823F466
:1015FC0040430B43536010F010001BD01E4AE968A7
:10160C005368002023F480030B43536012E000273F
:10161C00D4E7336843F480733360FFF731F88046C6
:10162C003368D805CED4FFF72BF8A0EB080064285C
:10163C00F6D9032002B0BDE8F0816A6802F440726A
:10164C009342C3D001200E4A236A1060002023F479
:10165C00407110602162D907B8D5FFF711F841F23B
:10166C0088380646236A9A07B0D4FFF709F8801B1E
:10167C004045F7D9DDE700BF001002400070004084
:10168C004004424270B50446354B86B002AD03F1BE
:10169C0010062A4618685968083303C2B342154627
:1016AC00F7D101238DF8043002239C428DF80530CC
:1016BC0047D0102C17D0012C4FD140F20231294ABF
:1016CC00136A1940B1F5817F44D003F44073B3F52C
:1016DC00007F2DD149F64040536A13F0020F08BF2A
:1016EC00002006B070BD1F4B5968186810F0807050
:1016FC00F7D0C1F3834206A8024412F8100CCA03B7
:10170C0041BF5A6806A9C2F34042521844BF12F8AE
:10171C00141C154A5B684CBFB2FBF1F2134A5B0216
:10172C0002FB00F0DDD403234000B0FBF3F0D8E75C
:10173C00B3F5407F11D113684FF2244013F4003FEE
:10174C00CDE7FFF717FF074B5B68C3F3813301331A
:10175C005B00EAE74FF40040C3E70020C1E700BF9D
:10176C00DC2000080010024000127A0000093D0045
:10177C00036A70B523F001030362036A446882694B
:10178C000D6822F073022A438D6823F002032B4369
:10179C000A4DA8420BD1CD6823F008032B438E6968
:1017AC004D6924F44074354323F004032C43446006
:1017BC0082614A684263036270BD00BF002C014025
:1017CC00036A70B523F480730362036A4468C269C8
:1017DC000D6822F073022A438D6823F4007343EAE8
:1017EC0005230B4DA8420DD1CD6823F4006343EAC9
:1017FC0005238E694D6924F44054354323F48063EA
:10180C0044EA05144460C2614A68C263036270BD55
:10181C00002C0140036A30B523F480530362036A41
:10182C004468C2690D6822F4E64242EA05228D68DA
:10183C0023F4005343EA0533064DA84202BF4D6919
:10184C0024F4804444EA85144460C2614A6802640A
:10185C00036230BD002C01401A4A036890420AD042
:10186C00B0F1804F07D0A2F59432904203D002F52C
:10187C008062904215D14A6823F070031343114AD9
:10188C0090420AD0B0F1804F07D0A2F5943290422A
:10189C0003D002F58062904203D1CA6823F44073EE
:1018AC0013434A6923F08003134303608B68C362BC
:1018BC000B688362034B984204BF0B6903630123DB
:1018CC0043617047002C014010B50446A0B190F85C
:1018DC003D3003F0FF021BB980F83C2000F008FB00
:1018EC000223206884F83D30211DFFF7B5FF01234A
:1018FC00002084F83D3010BD012010BD036A70B586
:10190C0023F010030362036A446882690D6822F4B1
:10191C00E64242EA05228D6823F0200343EA0513D0
:10192C000B4DA8420DD1CD6823F0800343EA05137B
:10193C008E694D6924F44064354323F0400344EA36
:10194C008504446082614A688263036270BD00BF93
:10195C00002C014038B590F83C300446012B4FF078
:10196C00020025D0012384F83D0084F83C300C2A79
:10197C0018D8DFE802F0071717171E1717172F17BD
:10198C00171740002068FFF7F3FE236809699A696E
:10199C0042F008029A619A6922F004029A619A69EB
:1019AC000A439A610123002084F83D3084F83C00FE
:1019BC0038BD2068FFF7A2FF236809699A6942F4D1
:1019CC0000629A619A6922F480629A619A6942EA89
:1019DC000122E6E72068FFF7F3FE23680969DA695C
:1019EC0042F00802DA61DA6922F00402DA61DA699B
:1019FC000A43DA61D6E72068FFF70CFF2368096910
:101A0C00DA6942F40062DA61DA6922F48062DA613E
:101A1C00DA6942EA0122ECE710B50124036A8C4032
:101A2C0023EA04030362036A8A401A43026210BD6C
:101A3C0010B5044601220068FFF7EEFF2368064A42
:101A4C000020934202BF5A6C42F400425A641A6856
:101A5C0042F001021A6010BD002C014090F83C309D
:101A6C0010B5012B4FF0020318D080F83D300368FD
:101A7C000C685A68496822F070025A605A6822430E
:101A8C005A609A6822F080029A609A680A439A60B7
:101A9C00012380F83D30002380F83C30184610BDFF
:101AAC00F8B50024074D084F084E57F82400FEF7F0
:101ABC00FDFB3146FEF752FC45F824000134042CA2
:101ACC00F3D1F8BD3001002040010020D9BA1738FD
:101ADC004FF4803310B594B001220B9300210224F3
:101AEC0012934FF4E0130AA80A920C910E921194DF
:101AFC001393FFF7CDFA00B1FEE70F2305934FF4D4
:101B0C00806307900990214605A806940893FFF777
:101B1C0087FC00B1FEE74FF4004301A80194039346
:101B2C00FFF738FD044600B1FEE7FFF71DFD4FF44B
:101B3C007A73B0FBF3F0FFF79DF80420FFF7B0F8D1
:101B4C00224621464FF0FF30FFF754F814B010BD79
:101B5C0080B58EB0FEF776FDFFF7BAFF924B0B20E7
:101B6C009A69924C42F020029A619A69012702F01C
:101B7C0020020292029A9A69042542F004029A61A8
:101B8C009A6902F004020392039A9A6942F00802DD
:101B9C009A619A6902F008020492049A5A6942F016
:101BAC0001025A6100225B69114603F001030193A3
:101BBC00019BFFF71FF80B20FFF750F87C4B4FF4FD
:101BCC00602223604FF48073A36000232046E760FB
:101BDC006361E26163602561FEF712FF00B1FEE70D
:101BEC000326079007A9204608970996FEF79CFD47
:101BFC0000B1FEE70797022707A920460897FEF7D2
:101C0C0093FD00B1FEE707A9204607970896FEF75B
:101C1C008BFD00B1FEE707A9204607960895FEF755
:101C2C0083FD00B1FEE7634C634B6060236040F2C0
:101C3C000773A0602061A0612046E360FFF744FEBB
:101C4C0000B1FEE70590069005A92046FFF706FFB8
:101C5C00024600B1FEE7602307934FF4AA63099094
:101C6C0007A9204608930B95FFF774FE00B1FEE719
:101C7C004FF47F732A4607A920460893FFF76AFEA4
:101C8C0000B1FEE70890082207A92046FFF762FE84
:101C9C0000B1FEE74FF4AA760C2207A94548089636
:101CAC00FFF758FE054600B1FEE7424800F046F942
:101CBC00424C434B204684E8280040F20773A56051
:101CCC00E3602561A561FFF7FFFD00B1FEE705901C
:101CDC00069005A92046FFF7C1FE024600B1FEE7BB
:101CEC006023042507934FF4AA63099007A92046A3
:101CFC0008930B95FFF72EFE00B1FEE74FF47F73B0
:101D0C002A4607A920460893FFF724FE00B1FEE7F8
:101D1C004FF42A73082207A920460893FFF71AFEEE
:101D2C0000B1FEE70C2207A920460896FFF712FE29
:101D3C00064600B1FEE7204600F000F91B48FEF70E
:101D4C005FFE1A48FEF7DCFE2A461E491748FEF7CE
:101D5C00A7FD1848FFF7B8FD31461648FFF768FE97
:101D6C0029461448FFF764FE08211248FFF760FE6D
:101D7C000C211048FFF75CFE2046FFF7A5FD31460D
:101D8C002046FFF755FE29462046FFF751FE082155
:101D9C002046FFF74DFE0C212046FFF749FE64203C
:101DAC00FEF774FCFBE700BF00100240AC00002003
:101DBC00002401406C000020000400402C00002096
:101DCC000008004040010020FEE70000254B07B54D
:101DDC009A69032042F001029A619A6902F00102A9
:101DEC000092009ADA6942F08052DA61DB6903F002
:101DFC0080530193019BFEF7EBFE00226FF00B006A
:101E0C001146FEF7F7FE00226FF00A001146FEF7AE
:101E1C00F1FE00226FF009001146FEF7EBFE0022E6
:101E2C006FF004001146FEF7E5FE00226FF0030090
:101E3C001146FEF7DFFE00226FF001001146FEF79F
:101E4C00D9FE00224FF0FF301146FEF7D3FE064AB2
:101E5C00536823F0E06343F00073536003B05DF804
:101E6C0004FB00BF001002400000014030B50268C6
:101E7C001A4B87B09A4205462DD103F56C439A69EB
:101E8C00174842F400729A619B6902A903F400732B
:101E9C000193019B0F23029303230393FFF718F87D
:101EAC008022104C104BE2604FF4007222614FF410
:101EBC000062236062610023202220466360A360DD
:101ECC00A261E361FEF7FEFE18B17A210748FFF725
:101EDC007BFF2C62656207B030BD00BF002401405F
:101EEC0000080140EC00002008000240EC20000833
:101EFC0003680F4A82B093420BD10E4BDA6942F061
:101F0C000202DA61DB6903F002030093009B02B06A
:101F1C007047094A9342FAD1064BDA6942F004023F
:101F2C00DA61DB6903F004030193019BEFE700BF67
:101F3C000004004000100240000800401FB5036878
:101F4C00124A934214D1332300930223694610485A
:101F5C0001930393FEF7BCFF0E4A536823F44063CE
:101F6C0043F0E06343F40063536005B05DF804FB99
:101F7C00094A9342F9D14FF47073009302236946D6
:101F8C00034801930393FEF7A3FFEEE70004004020
:101F9C00000C014000000140000800407047FEE7C3
:101FAC00FEE7FEE7FEE770477047704708B5FEF79F
:101FBC005BFBBDE80840FEF780BE00000148FEF761
:101FCC00F3BE00BFEC0000200F4B1A6842F0010278
:101FDC001A6059680D4A0A405A601A6822F08472D5
:101FEC0022F480321A601A6822F480221A605A682D
:101FFC0022F4FE025A604FF41F029A604FF0006206
:10200C00034B9A60704700BF001002400000FFF8BD
:10201C0000ED00E0002103E00B4B5B584350043112
:10202C000A480B4B42189A42F6D30A4A02E00023A4
:10203C0042F8043B084B9A42F9D3FFF7C5FF00F076
:10204C000FF8FFF785FD70472821000800000020DD
:10205C000C0000200C00002050010020FEE70000C6
:10206C0070B500250C4E0D4CA41BA410A54209D133
:10207C0000F01AF800250A4E0A4CA41BA410A54225
:10208C0005D170BD56F8253098470135EEE756F866
:10209C00253098470135F2E720210008202100085F
:1020AC002021000824210008F8B500BFF8BC08BCAA
:1020BC009E467047F8B500BFF8BC08BC9E467047FA
:1020CC0002030405060708090A0B0C0D0E0F10106D
:1020DC0002030405060708090A0B0C0D0E0F10105D
:1020EC002E2E2F5372632F73746D333266317878C2
:1020FC005F68616C5F6D73702E6300000000000000
:10210C00000000010203040607080900000000019A
:04211C0002030400B6
:042120003101000881
:042124000D010008A1
:0C212800010000001000000000A24A04AA
:0400000508002021AE
:00000001FF
